{
  "contractName": "Asset",
  "abi": [
    {
      "inputs": [],
      "stateMutability": "nonpayable",
      "type": "constructor"
    },
    {
      "anonymous": false,
      "inputs": [
        {
          "indexed": true,
          "internalType": "uint256",
          "name": "_propertyId",
          "type": "uint256"
        }
      ],
      "name": "boughtEvent",
      "type": "event"
    },
    {
      "inputs": [
        {
          "internalType": "uint256",
          "name": "",
          "type": "uint256"
        }
      ],
      "name": "Properties",
      "outputs": [
        {
          "internalType": "uint256",
          "name": "id",
          "type": "uint256"
        },
        {
          "internalType": "string",
          "name": "name",
          "type": "string"
        },
        {
          "internalType": "uint256",
          "name": "price",
          "type": "uint256"
        },
        {
          "internalType": "address",
          "name": "owner",
          "type": "address"
        }
      ],
      "stateMutability": "view",
      "type": "function",
      "constant": true
    },
    {
      "inputs": [],
      "name": "propertyCount",
      "outputs": [
        {
          "internalType": "uint256",
          "name": "",
          "type": "uint256"
        }
      ],
      "stateMutability": "view",
      "type": "function",
      "constant": true
    },
    {
      "inputs": [
        {
          "internalType": "uint256",
          "name": "_propertyId",
          "type": "uint256"
        }
      ],
      "name": "buy",
      "outputs": [],
      "stateMutability": "nonpayable",
      "type": "function"
    }
  ],
  "bytecode": "0x608060405234801561001057600080fd5b506100556040518060400160405280600a81526020017f50726f706572747920310000000000000000000000000000000000000000000081525061012660201b60201c565b6100996040518060400160405280600a81526020017f50726f706572747920320000000000000000000000000000000000000000000081525061012660201b60201c565b6100dd6040518060400160405280600a81526020017f50726f706572747920330000000000000000000000000000000000000000000081525061012660201b60201c565b6101216040518060400160405280600a81526020017f50726f706572747920340000000000000000000000000000000000000000000081525061012660201b60201c565b6103a4565b60016000815480929190610139906102fa565b9190505550604051806080016040528060015481526020018281526020016032815260200173afce0df05daff78cf57ae904fbc7288b8189fb6273ffffffffffffffffffffffffffffffffffffffff1681525060008060015481526020019081526020016000206000820151816000015560208201518160010190805190602001906101c692919061021e565b506040820151816002015560608201518160030160006101000a81548173ffffffffffffffffffffffffffffffffffffffff021916908373ffffffffffffffffffffffffffffffffffffffff16021790555090505050565b82805461022a90610372565b90600052602060002090601f01602090048101928261024c5760008555610293565b82601f1061026557805160ff1916838001178555610293565b82800160010185558215610293579182015b82811115610292578251825591602001919060010190610277565b5b5090506102a091906102a4565b5090565b5b808211156102bd5760008160009055506001016102a5565b5090565b7f4e487b7100000000000000000000000000000000000000000000000000000000600052601160045260246000fd5b6000819050919050565b6000610305826102f0565b91507fffffffffffffffffffffffffffffffffffffffffffffffffffffffffffffffff821415610338576103376102c1565b5b600182019050919050565b7f4e487b7100000000000000000000000000000000000000000000000000000000600052602260045260246000fd5b6000600282049050600182168061038a57607f821691505b6020821081141561039e5761039d610343565b5b50919050565b6104d2806103b36000396000f3fe608060405234801561001057600080fd5b50600436106100415760003560e01c80639d11688414610046578063c361a33514610079578063d96a094a14610097575b600080fd5b610060600480360381019061005b91906102be565b6100b3565b60405161007094939291906103d4565b60405180910390f35b61008161018b565b60405161008e9190610420565b60405180910390f35b6100b160048036038101906100ac91906102be565b610191565b005b60006020528060005260406000206000915090508060000154908060010180546100dc9061046a565b80601f01602080910402602001604051908101604052809291908181526020018280546101089061046a565b80156101555780601f1061012a57610100808354040283529160200191610155565b820191906000526020600020905b81548152906001019060200180831161013857829003601f168201915b5050505050908060020154908060030160009054906101000a900473ffffffffffffffffffffffffffffffffffffffff16905084565b60015481565b60008082815260200190815260200160002060030160009054906101000a900473ffffffffffffffffffffffffffffffffffffffff1673ffffffffffffffffffffffffffffffffffffffff163373ffffffffffffffffffffffffffffffffffffffff1614156101ff57600080fd5b3360008083815260200190815260200160002060030160006101000a81548173ffffffffffffffffffffffffffffffffffffffff021916908373ffffffffffffffffffffffffffffffffffffffff160217905550807ff2670abd02b475be51b08b4833909ef96165e73935b8ddbd3fec80a2eda4814a60405160405180910390a250565b600080fd5b6000819050919050565b61029b81610288565b81146102a657600080fd5b50565b6000813590506102b881610292565b92915050565b6000602082840312156102d4576102d3610283565b5b60006102e2848285016102a9565b91505092915050565b6102f481610288565b82525050565b600081519050919050565b600082825260208201905092915050565b60005b83811015610334578082015181840152602081019050610319565b83811115610343576000848401525b50505050565b6000601f19601f8301169050919050565b6000610365826102fa565b61036f8185610305565b935061037f818560208601610316565b61038881610349565b840191505092915050565b600073ffffffffffffffffffffffffffffffffffffffff82169050919050565b60006103be82610393565b9050919050565b6103ce816103b3565b82525050565b60006080820190506103e960008301876102eb565b81810360208301526103fb818661035a565b905061040a60408301856102eb565b61041760608301846103c5565b95945050505050565b600060208201905061043560008301846102eb565b92915050565b7f4e487b7100000000000000000000000000000000000000000000000000000000600052602260045260246000fd5b6000600282049050600182168061048257607f821691505b602082108114156104965761049561043b565b5b5091905056fea264697066735822122078d536a3193a58971553f501ffdfafec61294300e29f0ce2fdd7fe33567650d664736f6c63430008090033",
  "immutableReferences": {},
  "source": "pragma solidity 0.8.9;\r\n\r\ncontract Asset {\r\n    // Model a property\r\n    struct Property {\r\n        uint id;\r\n        string name;\r\n        uint price;\r\n        address owner;\r\n    }\r\n\r\n    mapping(uint => Property) public Properties;\r\n    // Store property Count\r\n    uint public propertyCount;\r\n\r\n    // boughtEvent event\r\n    event boughtEvent (\r\n        uint indexed _propertyId\r\n    );\r\n\r\n    constructor () public {\r\n        addProperty(\"Property 1\");\r\n        addProperty(\"Property 2\");\r\n        addProperty(\"Property 3\");\r\n        addProperty(\"Property 4\");\r\n    }\r\n\r\n    function addProperty (string memory _name) private {\r\n        propertyCount ++;\r\n        Properties[propertyCount] = Property(propertyCount, _name, 50, 0xafCE0df05Daff78cF57Ae904FBc7288b8189fB62);\r\n    }\r\n\r\n    function buy (uint _propertyId) public {\r\n        // require that they dont already own the property before\r\n        require(msg.sender!=Properties[_propertyId].owner);\r\n\r\n        // update owner of property\r\n        Properties[_propertyId].owner= msg.sender ;\r\n\r\n        // trigger bought event\r\n        emit boughtEvent(_propertyId);\r\n    }\r\n}\r\n",
  "sourcePath": "C:\\Users\\Debansh\\Documents\\Tejasv\\Blockchain\\Asset_management\\AssetManagement\\contracts\\Asset.sol",
  "compiler": {
    "name": "solc",
    "version": "0.8.9+commit.e5eed63a.Emscripten.clang"
  },
  "schemaVersion": "3.4.3",
  "updatedAt": "2021-10-30T05:18:41.717Z",
  "networkType": "ethereum",
  "devdoc": {
    "kind": "dev",
    "methods": {},
    "version": 1
  },
  "userdoc": {
    "kind": "user",
    "methods": {},
    "version": 1
  }
}